{
  "_format": "hh-sol-artifact-1",
  "contractName": "MedinaToken",
  "sourceName": "contracts/MedinaToken.sol",
  "abi": [
    {
      "inputs": [],
      "stateMutability": "nonpayable",
      "type": "constructor"
    },
    {
      "inputs": [
        {
          "internalType": "address",
          "name": "spender",
          "type": "address"
        },
        {
          "internalType": "uint256",
          "name": "allowance",
          "type": "uint256"
        },
        {
          "internalType": "uint256",
          "name": "needed",
          "type": "uint256"
        }
      ],
      "name": "ERC20InsufficientAllowance",
      "type": "error"
    },
    {
      "inputs": [
        {
          "internalType": "address",
          "name": "sender",
          "type": "address"
        },
        {
          "internalType": "uint256",
          "name": "balance",
          "type": "uint256"
        },
        {
          "internalType": "uint256",
          "name": "needed",
          "type": "uint256"
        }
      ],
      "name": "ERC20InsufficientBalance",
      "type": "error"
    },
    {
      "inputs": [
        {
          "internalType": "address",
          "name": "approver",
          "type": "address"
        }
      ],
      "name": "ERC20InvalidApprover",
      "type": "error"
    },
    {
      "inputs": [
        {
          "internalType": "address",
          "name": "receiver",
          "type": "address"
        }
      ],
      "name": "ERC20InvalidReceiver",
      "type": "error"
    },
    {
      "inputs": [
        {
          "internalType": "address",
          "name": "sender",
          "type": "address"
        }
      ],
      "name": "ERC20InvalidSender",
      "type": "error"
    },
    {
      "inputs": [
        {
          "internalType": "address",
          "name": "spender",
          "type": "address"
        }
      ],
      "name": "ERC20InvalidSpender",
      "type": "error"
    },
    {
      "inputs": [
        {
          "internalType": "address",
          "name": "owner",
          "type": "address"
        }
      ],
      "name": "OwnableInvalidOwner",
      "type": "error"
    },
    {
      "inputs": [
        {
          "internalType": "address",
          "name": "account",
          "type": "address"
        }
      ],
      "name": "OwnableUnauthorizedAccount",
      "type": "error"
    },
    {
      "anonymous": false,
      "inputs": [
        {
          "indexed": true,
          "internalType": "address",
          "name": "owner",
          "type": "address"
        },
        {
          "indexed": true,
          "internalType": "address",
          "name": "spender",
          "type": "address"
        },
        {
          "indexed": false,
          "internalType": "uint256",
          "name": "value",
          "type": "uint256"
        }
      ],
      "name": "Approval",
      "type": "event"
    },
    {
      "anonymous": false,
      "inputs": [
        {
          "indexed": true,
          "internalType": "address",
          "name": "previousOwner",
          "type": "address"
        },
        {
          "indexed": true,
          "internalType": "address",
          "name": "newOwner",
          "type": "address"
        }
      ],
      "name": "OwnershipTransferred",
      "type": "event"
    },
    {
      "anonymous": false,
      "inputs": [
        {
          "indexed": true,
          "internalType": "address",
          "name": "from",
          "type": "address"
        },
        {
          "indexed": true,
          "internalType": "address",
          "name": "to",
          "type": "address"
        },
        {
          "indexed": false,
          "internalType": "uint256",
          "name": "value",
          "type": "uint256"
        }
      ],
      "name": "Transfer",
      "type": "event"
    },
    {
      "inputs": [
        {
          "internalType": "address",
          "name": "owner",
          "type": "address"
        },
        {
          "internalType": "address",
          "name": "spender",
          "type": "address"
        }
      ],
      "name": "allowance",
      "outputs": [
        {
          "internalType": "uint256",
          "name": "",
          "type": "uint256"
        }
      ],
      "stateMutability": "view",
      "type": "function"
    },
    {
      "inputs": [
        {
          "internalType": "address",
          "name": "spender",
          "type": "address"
        },
        {
          "internalType": "uint256",
          "name": "value",
          "type": "uint256"
        }
      ],
      "name": "approve",
      "outputs": [
        {
          "internalType": "bool",
          "name": "",
          "type": "bool"
        }
      ],
      "stateMutability": "nonpayable",
      "type": "function"
    },
    {
      "inputs": [
        {
          "internalType": "address",
          "name": "account",
          "type": "address"
        }
      ],
      "name": "balanceOf",
      "outputs": [
        {
          "internalType": "uint256",
          "name": "",
          "type": "uint256"
        }
      ],
      "stateMutability": "view",
      "type": "function"
    },
    {
      "inputs": [],
      "name": "burnPercentage",
      "outputs": [
        {
          "internalType": "uint256",
          "name": "",
          "type": "uint256"
        }
      ],
      "stateMutability": "view",
      "type": "function"
    },
    {
      "inputs": [
        {
          "internalType": "uint256",
          "name": "value",
          "type": "uint256"
        }
      ],
      "name": "calculateBurnPercentage",
      "outputs": [
        {
          "internalType": "uint256",
          "name": "",
          "type": "uint256"
        }
      ],
      "stateMutability": "view",
      "type": "function"
    },
    {
      "inputs": [],
      "name": "decimals",
      "outputs": [
        {
          "internalType": "uint8",
          "name": "",
          "type": "uint8"
        }
      ],
      "stateMutability": "view",
      "type": "function"
    },
    {
      "inputs": [],
      "name": "name",
      "outputs": [
        {
          "internalType": "string",
          "name": "",
          "type": "string"
        }
      ],
      "stateMutability": "view",
      "type": "function"
    },
    {
      "inputs": [],
      "name": "owner",
      "outputs": [
        {
          "internalType": "address",
          "name": "",
          "type": "address"
        }
      ],
      "stateMutability": "view",
      "type": "function"
    },
    {
      "inputs": [],
      "name": "renounceOwnership",
      "outputs": [],
      "stateMutability": "nonpayable",
      "type": "function"
    },
    {
      "inputs": [
        {
          "internalType": "address",
          "name": "beneficiariesFactory",
          "type": "address"
        }
      ],
      "name": "setBeneficiariesFactory",
      "outputs": [],
      "stateMutability": "nonpayable",
      "type": "function"
    },
    {
      "inputs": [
        {
          "internalType": "uint256",
          "name": "_burnPercentage",
          "type": "uint256"
        }
      ],
      "name": "setBurnPercentage",
      "outputs": [],
      "stateMutability": "nonpayable",
      "type": "function"
    },
    {
      "inputs": [],
      "name": "symbol",
      "outputs": [
        {
          "internalType": "string",
          "name": "",
          "type": "string"
        }
      ],
      "stateMutability": "view",
      "type": "function"
    },
    {
      "inputs": [],
      "name": "totalSupply",
      "outputs": [
        {
          "internalType": "uint256",
          "name": "",
          "type": "uint256"
        }
      ],
      "stateMutability": "view",
      "type": "function"
    },
    {
      "inputs": [
        {
          "internalType": "address",
          "name": "to",
          "type": "address"
        },
        {
          "internalType": "uint256",
          "name": "value",
          "type": "uint256"
        }
      ],
      "name": "transfer",
      "outputs": [
        {
          "internalType": "bool",
          "name": "",
          "type": "bool"
        }
      ],
      "stateMutability": "nonpayable",
      "type": "function"
    },
    {
      "inputs": [
        {
          "internalType": "address",
          "name": "from",
          "type": "address"
        },
        {
          "internalType": "address",
          "name": "to",
          "type": "address"
        },
        {
          "internalType": "uint256",
          "name": "value",
          "type": "uint256"
        }
      ],
      "name": "transferFrom",
      "outputs": [
        {
          "internalType": "bool",
          "name": "",
          "type": "bool"
        }
      ],
      "stateMutability": "nonpayable",
      "type": "function"
    },
    {
      "inputs": [
        {
          "internalType": "address",
          "name": "newOwner",
          "type": "address"
        }
      ],
      "name": "transferOwnership",
      "outputs": [],
      "stateMutability": "nonpayable",
      "type": "function"
    },
    {
      "inputs": [
        {
          "internalType": "address",
          "name": "to",
          "type": "address"
        },
        {
          "internalType": "uint256",
          "name": "value",
          "type": "uint256"
        }
      ],
      "name": "transferUnburned",
      "outputs": [
        {
          "internalType": "bool",
          "name": "",
          "type": "bool"
        }
      ],
      "stateMutability": "nonpayable",
      "type": "function"
    }
  ],
  "bytecode": "0x60806040523480156200001157600080fd5b50336040518060400160405280600b81526020017f4d6564696e61546f6b656e0000000000000000000000000000000000000000008152506040518060400160405280600381526020017f4d45440000000000000000000000000000000000000000000000000000000000815250816003908162000090919062000780565b508060049081620000a2919062000780565b505050600073ffffffffffffffffffffffffffffffffffffffff168173ffffffffffffffffffffffffffffffffffffffff16036200011a5760006040517f1e4fbdf7000000000000000000000000000000000000000000000000000000008152600401620001119190620008ac565b60405180910390fd5b6200012b816200017a60201b60201c565b506200016c33620001416200024060201b60201c565b600a6200014f919062000a59565b6305f5e10062000160919062000aaa565b6200024960201b60201c565b600060078190555062000b9b565b6000600560009054906101000a900473ffffffffffffffffffffffffffffffffffffffff16905081600560006101000a81548173ffffffffffffffffffffffffffffffffffffffff021916908373ffffffffffffffffffffffffffffffffffffffff1602179055508173ffffffffffffffffffffffffffffffffffffffff168173ffffffffffffffffffffffffffffffffffffffff167f8be0079c531659141344cd1fd0a4f28419497f9722a3daafe3b4186f6b6457e060405160405180910390a35050565b60006012905090565b600073ffffffffffffffffffffffffffffffffffffffff168273ffffffffffffffffffffffffffffffffffffffff1603620002be5760006040517fec442f05000000000000000000000000000000000000000000000000000000008152600401620002b59190620008ac565b60405180910390fd5b620002d260008383620002d660201b60201c565b5050565b600073ffffffffffffffffffffffffffffffffffffffff168373ffffffffffffffffffffffffffffffffffffffff16036200032c5780600260008282546200031f919062000af5565b9250508190555062000402565b60008060008573ffffffffffffffffffffffffffffffffffffffff1673ffffffffffffffffffffffffffffffffffffffff16815260200190815260200160002054905081811015620003bb578381836040517fe450d38c000000000000000000000000000000000000000000000000000000008152600401620003b29392919062000b41565b60405180910390fd5b8181036000808673ffffffffffffffffffffffffffffffffffffffff1673ffffffffffffffffffffffffffffffffffffffff16815260200190815260200160002081905550505b600073ffffffffffffffffffffffffffffffffffffffff168273ffffffffffffffffffffffffffffffffffffffff16036200044d57806002600082825403925050819055506200049a565b806000808473ffffffffffffffffffffffffffffffffffffffff1673ffffffffffffffffffffffffffffffffffffffff168152602001908152602001600020600082825401925050819055505b8173ffffffffffffffffffffffffffffffffffffffff168373ffffffffffffffffffffffffffffffffffffffff167fddf252ad1be2c89b69c2b068fc378daa952ba7f163c4a11628f55a4df523b3ef83604051620004f9919062000b7e565b60405180910390a3505050565b600081519050919050565b7f4e487b7100000000000000000000000000000000000000000000000000000000600052604160045260246000fd5b7f4e487b7100000000000000000000000000000000000000000000000000000000600052602260045260246000fd5b600060028204905060018216806200058857607f821691505b6020821081036200059e576200059d62000540565b5b50919050565b60008190508160005260206000209050919050565b60006020601f8301049050919050565b600082821b905092915050565b600060088302620006087fffffffffffffffffffffffffffffffffffffffffffffffffffffffffffffffff82620005c9565b620006148683620005c9565b95508019841693508086168417925050509392505050565b6000819050919050565b6000819050919050565b6000620006616200065b62000655846200062c565b62000636565b6200062c565b9050919050565b6000819050919050565b6200067d8362000640565b620006956200068c8262000668565b848454620005d6565b825550505050565b600090565b620006ac6200069d565b620006b981848462000672565b505050565b5b81811015620006e157620006d5600082620006a2565b600181019050620006bf565b5050565b601f8211156200073057620006fa81620005a4565b6200070584620005b9565b8101602085101562000715578190505b6200072d6200072485620005b9565b830182620006be565b50505b505050565b600082821c905092915050565b6000620007556000198460080262000735565b1980831691505092915050565b600062000770838362000742565b9150826002028217905092915050565b6200078b8262000506565b67ffffffffffffffff811115620007a757620007a662000511565b5b620007b382546200056f565b620007c0828285620006e5565b600060209050601f831160018114620007f85760008415620007e3578287015190505b620007ef858262000762565b8655506200085f565b601f1984166200080886620005a4565b60005b8281101562000832578489015182556001820191506020850194506020810190506200080b565b868310156200085257848901516200084e601f89168262000742565b8355505b6001600288020188555050505b505050505050565b600073ffffffffffffffffffffffffffffffffffffffff82169050919050565b6000620008948262000867565b9050919050565b620008a68162000887565b82525050565b6000602082019050620008c360008301846200089b565b92915050565b7f4e487b7100000000000000000000000000000000000000000000000000000000600052601160045260246000fd5b60008160011c9050919050565b6000808291508390505b600185111562000957578086048111156200092f576200092e620008c9565b5b60018516156200093f5780820291505b80810290506200094f85620008f8565b94506200090f565b94509492505050565b60008262000972576001905062000a45565b8162000982576000905062000a45565b81600181146200099b5760028114620009a657620009dc565b600191505062000a45565b60ff841115620009bb57620009ba620008c9565b5b8360020a915084821115620009d557620009d4620008c9565b5b5062000a45565b5060208310610133831016604e8410600b841016171562000a165782820a90508381111562000a105762000a0f620008c9565b5b62000a45565b62000a25848484600162000905565b9250905081840481111562000a3f5762000a3e620008c9565b5b81810290505b9392505050565b600060ff82169050919050565b600062000a66826200062c565b915062000a738362000a4c565b925062000aa27fffffffffffffffffffffffffffffffffffffffffffffffffffffffffffffffff848462000960565b905092915050565b600062000ab7826200062c565b915062000ac4836200062c565b925082820262000ad4816200062c565b9150828204841483151762000aee5762000aed620008c9565b5b5092915050565b600062000b02826200062c565b915062000b0f836200062c565b925082820190508082111562000b2a5762000b29620008c9565b5b92915050565b62000b3b816200062c565b82525050565b600060608201905062000b5860008301866200089b565b62000b67602083018562000b30565b62000b76604083018462000b30565b949350505050565b600060208201905062000b95600083018462000b30565b92915050565b6116978062000bab6000396000f3fe608060405234801561001057600080fd5b506004361061010b5760003560e01c80638dbb0120116100a2578063aec8e0a711610071578063aec8e0a7146102d0578063c3f0d327146102ec578063dd62ed3e14610308578063f01f20df14610338578063f2fde38b146103565761010b565b80638dbb0120146102225780638f1952bb1461025257806395d89b4114610282578063a9059cbb146102a05761010b565b8063313ce567116100de578063313ce567146101ac57806370a08231146101ca578063715018a6146101fa5780638da5cb5b146102045761010b565b806306fdde0314610110578063095ea7b31461012e57806318160ddd1461015e57806323b872dd1461017c575b600080fd5b610118610372565b60405161012591906110a4565b60405180910390f35b6101486004803603810190610143919061115f565b610404565b60405161015591906111ba565b60405180910390f35b610166610427565b60405161017391906111e4565b60405180910390f35b610196600480360381019061019191906111ff565b610431565b6040516101a391906111ba565b60405180910390f35b6101b461046f565b6040516101c1919061126e565b60405180910390f35b6101e460048036038101906101df9190611289565b610478565b6040516101f191906111e4565b60405180910390f35b6102026104c0565b005b61020c6104d4565b60405161021991906112c5565b60405180910390f35b61023c600480360381019061023791906112e0565b6104fe565b60405161024991906111e4565b60405180910390f35b61026c6004803603810190610267919061115f565b610521565b60405161027991906111ba565b60405180910390f35b61028a610543565b60405161029791906110a4565b60405180910390f35b6102ba60048036038101906102b5919061115f565b6105d5565b6040516102c791906111ba565b60405180910390f35b6102ea60048036038101906102e59190611289565b610618565b005b610306600480360381019061030191906112e0565b610664565b005b610322600480360381019061031d919061130d565b610742565b60405161032f91906111e4565b60405180910390f35b6103406107c9565b60405161034d91906111e4565b60405180910390f35b610370600480360381019061036b9190611289565b6107cf565b005b6060600380546103819061137c565b80601f01602080910402602001604051908101604052809291908181526020018280546103ad9061137c565b80156103fa5780601f106103cf576101008083540402835291602001916103fa565b820191906000526020600020905b8154815290600101906020018083116103dd57829003601f168201915b5050505050905090565b60008061040f610855565b905061041c81858561085d565b600191505092915050565b6000600254905090565b60008061043d836104fe565b90506000818461044d91906113dc565b9050610459868361086f565b6104648686836108f1565b925050509392505050565b60006012905090565b60008060008373ffffffffffffffffffffffffffffffffffffffff1673ffffffffffffffffffffffffffffffffffffffff168152602001908152602001600020549050919050565b6104c8610920565b6104d260006109a7565b565b6000600560009054906101000a900473ffffffffffffffffffffffffffffffffffffffff16905090565b60006064600754836105109190611410565b61051a9190611481565b9050919050565b6000600660009054906101000a90505061053b8383610a6d565b905092915050565b6060600480546105529061137c565b80601f016020809104026020016040519081016040528092919081815260200182805461057e9061137c565b80156105cb5780601f106105a0576101008083540402835291602001916105cb565b820191906000526020600020905b8154815290600101906020018083116105ae57829003601f168201915b5050505050905090565b6000806105e1836104fe565b9050600081846105f191906113dc565b90506106046105fe610855565b8361086f565b61060e8582610a6d565b9250505092915050565b610620610920565b80600660006101000a81548173ffffffffffffffffffffffffffffffffffffffff021916908373ffffffffffffffffffffffffffffffffffffffff16021790555050565b61066c610920565b600081036106af576040517f08c379a00000000000000000000000000000000000000000000000000000000081526004016106a6906114fe565b60405180910390fd5b60028111156106f3576040517f08c379a00000000000000000000000000000000000000000000000000000000081526004016106ea9061156a565b60405180910390fd5b600060075414610738576040517f08c379a000000000000000000000000000000000000000000000000000000000815260040161072f906115d6565b60405180910390fd5b8060078190555050565b6000600160008473ffffffffffffffffffffffffffffffffffffffff1673ffffffffffffffffffffffffffffffffffffffff16815260200190815260200160002060008373ffffffffffffffffffffffffffffffffffffffff1673ffffffffffffffffffffffffffffffffffffffff16815260200190815260200160002054905092915050565b60075481565b6107d7610920565b600073ffffffffffffffffffffffffffffffffffffffff168173ffffffffffffffffffffffffffffffffffffffff16036108495760006040517f1e4fbdf700000000000000000000000000000000000000000000000000000000815260040161084091906112c5565b60405180910390fd5b610852816109a7565b50565b600033905090565b61086a8383836001610a90565b505050565b600073ffffffffffffffffffffffffffffffffffffffff168273ffffffffffffffffffffffffffffffffffffffff16036108e15760006040517f96c6fd1e0000000000000000000000000000000000000000000000000000000081526004016108d891906112c5565b60405180910390fd5b6108ed82600083610c67565b5050565b6000806108fc610855565b9050610909858285610e8c565b610914858585610f20565b60019150509392505050565b610928610855565b73ffffffffffffffffffffffffffffffffffffffff166109466104d4565b73ffffffffffffffffffffffffffffffffffffffff16146109a557610969610855565b6040517f118cdaa700000000000000000000000000000000000000000000000000000000815260040161099c91906112c5565b60405180910390fd5b565b6000600560009054906101000a900473ffffffffffffffffffffffffffffffffffffffff16905081600560006101000a81548173ffffffffffffffffffffffffffffffffffffffff021916908373ffffffffffffffffffffffffffffffffffffffff1602179055508173ffffffffffffffffffffffffffffffffffffffff168173ffffffffffffffffffffffffffffffffffffffff167f8be0079c531659141344cd1fd0a4f28419497f9722a3daafe3b4186f6b6457e060405160405180910390a35050565b600080610a78610855565b9050610a85818585610f20565b600191505092915050565b600073ffffffffffffffffffffffffffffffffffffffff168473ffffffffffffffffffffffffffffffffffffffff1603610b025760006040517fe602df05000000000000000000000000000000000000000000000000000000008152600401610af991906112c5565b60405180910390fd5b600073ffffffffffffffffffffffffffffffffffffffff168373ffffffffffffffffffffffffffffffffffffffff1603610b745760006040517f94280d62000000000000000000000000000000000000000000000000000000008152600401610b6b91906112c5565b60405180910390fd5b81600160008673ffffffffffffffffffffffffffffffffffffffff1673ffffffffffffffffffffffffffffffffffffffff16815260200190815260200160002060008573ffffffffffffffffffffffffffffffffffffffff1673ffffffffffffffffffffffffffffffffffffffff168152602001908152602001600020819055508015610c61578273ffffffffffffffffffffffffffffffffffffffff168473ffffffffffffffffffffffffffffffffffffffff167f8c5be1e5ebec7d5bd14f71427d1e84f3dd0314c0f7b2291e5b200ac8c7c3b92584604051610c5891906111e4565b60405180910390a35b50505050565b600073ffffffffffffffffffffffffffffffffffffffff168373ffffffffffffffffffffffffffffffffffffffff1603610cb9578060026000828254610cad91906115f6565b92505081905550610d8c565b60008060008573ffffffffffffffffffffffffffffffffffffffff1673ffffffffffffffffffffffffffffffffffffffff16815260200190815260200160002054905081811015610d45578381836040517fe450d38c000000000000000000000000000000000000000000000000000000008152600401610d3c9392919061162a565b60405180910390fd5b8181036000808673ffffffffffffffffffffffffffffffffffffffff1673ffffffffffffffffffffffffffffffffffffffff16815260200190815260200160002081905550505b600073ffffffffffffffffffffffffffffffffffffffff168273ffffffffffffffffffffffffffffffffffffffff1603610dd55780600260008282540392505081905550610e22565b806000808473ffffffffffffffffffffffffffffffffffffffff1673ffffffffffffffffffffffffffffffffffffffff168152602001908152602001600020600082825401925050819055505b8173ffffffffffffffffffffffffffffffffffffffff168373ffffffffffffffffffffffffffffffffffffffff167fddf252ad1be2c89b69c2b068fc378daa952ba7f163c4a11628f55a4df523b3ef83604051610e7f91906111e4565b60405180910390a3505050565b6000610e988484610742565b90507fffffffffffffffffffffffffffffffffffffffffffffffffffffffffffffffff8114610f1a5781811015610f0a578281836040517ffb8f41b2000000000000000000000000000000000000000000000000000000008152600401610f019392919061162a565b60405180910390fd5b610f1984848484036000610a90565b5b50505050565b600073ffffffffffffffffffffffffffffffffffffffff168373ffffffffffffffffffffffffffffffffffffffff1603610f925760006040517f96c6fd1e000000000000000000000000000000000000000000000000000000008152600401610f8991906112c5565b60405180910390fd5b600073ffffffffffffffffffffffffffffffffffffffff168273ffffffffffffffffffffffffffffffffffffffff16036110045760006040517fec442f05000000000000000000000000000000000000000000000000000000008152600401610ffb91906112c5565b60405180910390fd5b61100f838383610c67565b505050565b600081519050919050565b600082825260208201905092915050565b60005b8381101561104e578082015181840152602081019050611033565b60008484015250505050565b6000601f19601f8301169050919050565b600061107682611014565b611080818561101f565b9350611090818560208601611030565b6110998161105a565b840191505092915050565b600060208201905081810360008301526110be818461106b565b905092915050565b600080fd5b600073ffffffffffffffffffffffffffffffffffffffff82169050919050565b60006110f6826110cb565b9050919050565b611106816110eb565b811461111157600080fd5b50565b600081359050611123816110fd565b92915050565b6000819050919050565b61113c81611129565b811461114757600080fd5b50565b60008135905061115981611133565b92915050565b60008060408385031215611176576111756110c6565b5b600061118485828601611114565b92505060206111958582860161114a565b9150509250929050565b60008115159050919050565b6111b48161119f565b82525050565b60006020820190506111cf60008301846111ab565b92915050565b6111de81611129565b82525050565b60006020820190506111f960008301846111d5565b92915050565b600080600060608486031215611218576112176110c6565b5b600061122686828701611114565b935050602061123786828701611114565b92505060406112488682870161114a565b9150509250925092565b600060ff82169050919050565b61126881611252565b82525050565b6000602082019050611283600083018461125f565b92915050565b60006020828403121561129f5761129e6110c6565b5b60006112ad84828501611114565b91505092915050565b6112bf816110eb565b82525050565b60006020820190506112da60008301846112b6565b92915050565b6000602082840312156112f6576112f56110c6565b5b60006113048482850161114a565b91505092915050565b60008060408385031215611324576113236110c6565b5b600061133285828601611114565b925050602061134385828601611114565b9150509250929050565b7f4e487b7100000000000000000000000000000000000000000000000000000000600052602260045260246000fd5b6000600282049050600182168061139457607f821691505b6020821081036113a7576113a661134d565b5b50919050565b7f4e487b7100000000000000000000000000000000000000000000000000000000600052601160045260246000fd5b60006113e782611129565b91506113f283611129565b925082820390508181111561140a576114096113ad565b5b92915050565b600061141b82611129565b915061142683611129565b925082820261143481611129565b9150828204841483151761144b5761144a6113ad565b5b5092915050565b7f4e487b7100000000000000000000000000000000000000000000000000000000600052601260045260246000fd5b600061148c82611129565b915061149783611129565b9250826114a7576114a6611452565b5b828204905092915050565b7f4d75737420646566696e6520612070657263656e746167652e00000000000000600082015250565b60006114e860198361101f565b91506114f3826114b2565b602082019050919050565b60006020820190508181036000830152611517816114db565b9050919050565b7f50657263656e7461676520746f6f206269672e00000000000000000000000000600082015250565b600061155460138361101f565b915061155f8261151e565b602082019050919050565b6000602082019050818103600083015261158381611547565b9050919050565b7f50657263656e7461676520616c7265616479207365747465642e000000000000600082015250565b60006115c0601a8361101f565b91506115cb8261158a565b602082019050919050565b600060208201905081810360008301526115ef816115b3565b9050919050565b600061160182611129565b915061160c83611129565b9250828201905080821115611624576116236113ad565b5b92915050565b600060608201905061163f60008301866112b6565b61164c60208301856111d5565b61165960408301846111d5565b94935050505056fea2646970667358221220522574512c2e8585748c4d568bd905572629d8588308e6a21f81e038d747fe7a64736f6c63430008180033",
  "linkReferences": {},
  "deployedLinkReferences": {}
}