{
  "_format": "hh-sol-artifact-1",
  "contractName": "Beneficiaries",
  "sourceName": "contracts/Beneficiaries.sol",
  "abi": [
    {
      "inputs": [
        {
          "internalType": "contract MedinaToken",
          "name": "token",
          "type": "address"
        }
      ],
      "stateMutability": "nonpayable",
      "type": "constructor"
    },
    {
      "inputs": [],
      "name": "InvalidInitialization",
      "type": "error"
    },
    {
      "inputs": [],
      "name": "NotInitializing",
      "type": "error"
    },
    {
      "inputs": [
        {
          "internalType": "address",
          "name": "owner",
          "type": "address"
        }
      ],
      "name": "OwnableInvalidOwner",
      "type": "error"
    },
    {
      "inputs": [
        {
          "internalType": "address",
          "name": "account",
          "type": "address"
        }
      ],
      "name": "OwnableUnauthorizedAccount",
      "type": "error"
    },
    {
      "anonymous": false,
      "inputs": [
        {
          "indexed": false,
          "internalType": "uint64",
          "name": "version",
          "type": "uint64"
        }
      ],
      "name": "Initialized",
      "type": "event"
    },
    {
      "anonymous": false,
      "inputs": [
        {
          "indexed": true,
          "internalType": "address",
          "name": "previousOwner",
          "type": "address"
        },
        {
          "indexed": true,
          "internalType": "address",
          "name": "newOwner",
          "type": "address"
        }
      ],
      "name": "OwnershipTransferred",
      "type": "event"
    },
    {
      "inputs": [
        {
          "internalType": "address",
          "name": "beneficiary",
          "type": "address"
        }
      ],
      "name": "amount",
      "outputs": [
        {
          "internalType": "uint256",
          "name": "",
          "type": "uint256"
        }
      ],
      "stateMutability": "view",
      "type": "function"
    },
    {
      "inputs": [
        {
          "internalType": "address",
          "name": "beneficiary",
          "type": "address"
        }
      ],
      "name": "duration",
      "outputs": [
        {
          "internalType": "uint256",
          "name": "",
          "type": "uint256"
        }
      ],
      "stateMutability": "view",
      "type": "function"
    },
    {
      "inputs": [
        {
          "internalType": "address",
          "name": "beneficiary",
          "type": "address"
        }
      ],
      "name": "end",
      "outputs": [
        {
          "internalType": "uint256",
          "name": "",
          "type": "uint256"
        }
      ],
      "stateMutability": "view",
      "type": "function"
    },
    {
      "inputs": [
        {
          "internalType": "address",
          "name": "sales",
          "type": "address"
        },
        {
          "internalType": "address",
          "name": "marketing",
          "type": "address"
        },
        {
          "internalType": "address",
          "name": "incentives",
          "type": "address"
        },
        {
          "internalType": "address",
          "name": "team",
          "type": "address"
        },
        {
          "internalType": "address",
          "name": "liquidity",
          "type": "address"
        },
        {
          "internalType": "address",
          "name": "treasury",
          "type": "address"
        }
      ],
      "name": "initialize",
      "outputs": [],
      "stateMutability": "nonpayable",
      "type": "function"
    },
    {
      "inputs": [],
      "name": "owner",
      "outputs": [
        {
          "internalType": "address",
          "name": "",
          "type": "address"
        }
      ],
      "stateMutability": "view",
      "type": "function"
    },
    {
      "inputs": [
        {
          "internalType": "address",
          "name": "beneficiary",
          "type": "address"
        }
      ],
      "name": "releasable",
      "outputs": [
        {
          "internalType": "uint256",
          "name": "",
          "type": "uint256"
        }
      ],
      "stateMutability": "view",
      "type": "function"
    },
    {
      "inputs": [
        {
          "internalType": "address",
          "name": "beneficiary",
          "type": "address"
        }
      ],
      "name": "release",
      "outputs": [],
      "stateMutability": "nonpayable",
      "type": "function"
    },
    {
      "inputs": [
        {
          "internalType": "address",
          "name": "beneficiary",
          "type": "address"
        }
      ],
      "name": "released",
      "outputs": [
        {
          "internalType": "uint256",
          "name": "",
          "type": "uint256"
        }
      ],
      "stateMutability": "view",
      "type": "function"
    },
    {
      "inputs": [],
      "name": "renounceOwnership",
      "outputs": [],
      "stateMutability": "nonpayable",
      "type": "function"
    },
    {
      "inputs": [
        {
          "internalType": "address",
          "name": "beneficiary",
          "type": "address"
        }
      ],
      "name": "start",
      "outputs": [
        {
          "internalType": "uint256",
          "name": "",
          "type": "uint256"
        }
      ],
      "stateMutability": "view",
      "type": "function"
    },
    {
      "inputs": [
        {
          "internalType": "address",
          "name": "newOwner",
          "type": "address"
        }
      ],
      "name": "transferOwnership",
      "outputs": [],
      "stateMutability": "nonpayable",
      "type": "function"
    },
    {
      "inputs": [
        {
          "internalType": "address",
          "name": "beneficiary",
          "type": "address"
        },
        {
          "internalType": "uint64",
          "name": "timestamp",
          "type": "uint64"
        }
      ],
      "name": "vestedAmount",
      "outputs": [
        {
          "internalType": "uint256",
          "name": "",
          "type": "uint256"
        }
      ],
      "stateMutability": "view",
      "type": "function"
    }
  ],
  "bytecode": "0x60806040523480156200001157600080fd5b506040516200302438038062003024833981810160405281019062000037919062000249565b33600073ffffffffffffffffffffffffffffffffffffffff168173ffffffffffffffffffffffffffffffffffffffff1603620000ad5760006040517f1e4fbdf7000000000000000000000000000000000000000000000000000000008152600401620000a491906200028c565b60405180910390fd5b620000be816200010760201b60201c565b5080600160006101000a81548173ffffffffffffffffffffffffffffffffffffffff021916908373ffffffffffffffffffffffffffffffffffffffff16021790555050620002a9565b60008060009054906101000a900473ffffffffffffffffffffffffffffffffffffffff169050816000806101000a81548173ffffffffffffffffffffffffffffffffffffffff021916908373ffffffffffffffffffffffffffffffffffffffff1602179055508173ffffffffffffffffffffffffffffffffffffffff168173ffffffffffffffffffffffffffffffffffffffff167f8be0079c531659141344cd1fd0a4f28419497f9722a3daafe3b4186f6b6457e060405160405180910390a35050565b600080fd5b600073ffffffffffffffffffffffffffffffffffffffff82169050919050565b6000620001fd82620001d0565b9050919050565b60006200021182620001f0565b9050919050565b620002238162000204565b81146200022f57600080fd5b50565b600081519050620002438162000218565b92915050565b600060208284031215620002625762000261620001cb565b5b6000620002728482850162000232565b91505092915050565b6200028681620001f0565b82525050565b6000602082019050620002a360008301846200027b565b92915050565b612d6b80620002b96000396000f3fe60806040523480156200001157600080fd5b5060043610620000c45760003560e01c8063a3f8eace116200007b578063a3f8eace14620001b9578063b36760a314620001ef578063b9f0bf661462000225578063cc2a9a5b146200025b578063dd0b281e146200027b578063f2fde38b14620002b157620000c4565b80631916558714620000c9578063715018a614620000e9578063810ec23b14620000f55780638c4dd39d146200012b5780638da5cb5b14620001615780639852595c1462000183575b600080fd5b620000e76004803603810190620000e19190620012da565b620002d1565b005b620000f3620003c4565b005b6200011360048036038101906200010d919062001351565b620003dc565b604051620001229190620013b3565b60405180910390f35b620001496004803603810190620001439190620012da565b620004e8565b604051620001589190620013b3565b60405180910390f35b6200016b6200069f565b6040516200017a9190620013e1565b60405180910390f35b620001a160048036038101906200019b9190620012da565b620006c8565b604051620001b09190620013b3565b60405180910390f35b620001d76004803603810190620001d19190620012da565b620007d1565b604051620001e69190620013b3565b60405180910390f35b6200020d6004803603810190620002079190620012da565b620008da565b6040516200021c9190620013b3565b60405180910390f35b6200024360048036038101906200023d9190620012da565b620009b4565b604051620002529190620013b3565b60405180910390f35b620002796004803603810190620002739190620013fe565b62000a8e565b005b620002996004803603810190620002939190620012da565b62000cef565b604051620002a89190620013b3565b60405180910390f35b620002cf6004803603810190620002c99190620012da565b62000dc9565b005b600260008273ffffffffffffffffffffffffffffffffffffffff1673ffffffffffffffffffffffffffffffffffffffff16815260200190815260200160002060009054906101000a900473ffffffffffffffffffffffffffffffffffffffff1673ffffffffffffffffffffffffffffffffffffffff166319165587600160009054906101000a900473ffffffffffffffffffffffffffffffffffffffff166040518263ffffffff1660e01b81526004016200038d9190620013e1565b600060405180830381600087803b158015620003a857600080fd5b505af1158015620003bd573d6000803e3d6000fd5b5050505050565b620003ce62000e56565b620003da600062000ee6565b565b6000600260008473ffffffffffffffffffffffffffffffffffffffff1673ffffffffffffffffffffffffffffffffffffffff16815260200190815260200160002060009054906101000a900473ffffffffffffffffffffffffffffffffffffffff1673ffffffffffffffffffffffffffffffffffffffff1663810ec23b600160009054906101000a900473ffffffffffffffffffffffffffffffffffffffff16846040518363ffffffff1660e01b81526004016200049c929190620014ab565b602060405180830381865afa158015620004ba573d6000803e3d6000fd5b505050506040513d601f19601f82011682018060405250810190620004e0919062001509565b905092915050565b6000600260008373ffffffffffffffffffffffffffffffffffffffff1673ffffffffffffffffffffffffffffffffffffffff16815260200190815260200160002060009054906101000a900473ffffffffffffffffffffffffffffffffffffffff1673ffffffffffffffffffffffffffffffffffffffff16630fb5a6b46040518163ffffffff1660e01b8152600401602060405180830381865afa15801562000595573d6000803e3d6000fd5b505050506040513d601f19601f82011682018060405250810190620005bb919062001509565b600260008473ffffffffffffffffffffffffffffffffffffffff1673ffffffffffffffffffffffffffffffffffffffff16815260200190815260200160002060009054906101000a900473ffffffffffffffffffffffffffffffffffffffff1673ffffffffffffffffffffffffffffffffffffffff1663be9a65556040518163ffffffff1660e01b8152600401602060405180830381865afa15801562000666573d6000803e3d6000fd5b505050506040513d601f19601f820116820180604052508101906200068c919062001509565b6200069891906200156a565b9050919050565b60008060009054906101000a900473ffffffffffffffffffffffffffffffffffffffff16905090565b6000600260008373ffffffffffffffffffffffffffffffffffffffff1673ffffffffffffffffffffffffffffffffffffffff16815260200190815260200160002060009054906101000a900473ffffffffffffffffffffffffffffffffffffffff1673ffffffffffffffffffffffffffffffffffffffff16639852595c600160009054906101000a900473ffffffffffffffffffffffffffffffffffffffff166040518263ffffffff1660e01b8152600401620007869190620013e1565b602060405180830381865afa158015620007a4573d6000803e3d6000fd5b505050506040513d601f19601f82011682018060405250810190620007ca919062001509565b9050919050565b6000600260008373ffffffffffffffffffffffffffffffffffffffff1673ffffffffffffffffffffffffffffffffffffffff16815260200190815260200160002060009054906101000a900473ffffffffffffffffffffffffffffffffffffffff1673ffffffffffffffffffffffffffffffffffffffff1663a3f8eace600160009054906101000a900473ffffffffffffffffffffffffffffffffffffffff166040518263ffffffff1660e01b81526004016200088f9190620013e1565b602060405180830381865afa158015620008ad573d6000803e3d6000fd5b505050506040513d601f19601f82011682018060405250810190620008d3919062001509565b9050919050565b6000600260008373ffffffffffffffffffffffffffffffffffffffff1673ffffffffffffffffffffffffffffffffffffffff16815260200190815260200160002060009054906101000a900473ffffffffffffffffffffffffffffffffffffffff1673ffffffffffffffffffffffffffffffffffffffff16630fb5a6b46040518163ffffffff1660e01b8152600401602060405180830381865afa15801562000987573d6000803e3d6000fd5b505050506040513d601f19601f82011682018060405250810190620009ad919062001509565b9050919050565b6000600260008373ffffffffffffffffffffffffffffffffffffffff1673ffffffffffffffffffffffffffffffffffffffff16815260200190815260200160002060009054906101000a900473ffffffffffffffffffffffffffffffffffffffff1673ffffffffffffffffffffffffffffffffffffffff1663aa8c217c6040518163ffffffff1660e01b8152600401602060405180830381865afa15801562000a61573d6000803e3d6000fd5b505050506040513d601f19601f8201168201806040525081019062000a87919062001509565b9050919050565b600062000a9a62000faa565b905060008160000160089054906101000a900460ff1615905060008260000160009054906101000a900467ffffffffffffffff1690506000808267ffffffffffffffff1614801562000ae95750825b9050600060018367ffffffffffffffff1614801562000b1f575060003073ffffffffffffffffffffffffffffffffffffffff163b145b90508115801562000b2e575080155b1562000b66576040517ff92ee8a900000000000000000000000000000000000000000000000000000000815260040160405180910390fd5b60018560000160006101000a81548167ffffffffffffffff021916908367ffffffffffffffff160217905550831562000bb75760018560000160086101000a81548160ff0219169083151502179055505b62000bc162000e56565b60006366821bb090506000636a4482b090506000828262000be39190620015a5565b905062000bff8e84600062000bf9602562000fd2565b6200108a565b62000c198c84600062000c13600c62000fd2565b6200108a565b62000c338b84600062000c2d601262000fd2565b6200108a565b62000c4d8a84600062000c47600c62000fd2565b6200108a565b62000c668d848362000c60600d62000fd2565b6200108a565b62000c808983600062000c7a600862000fd2565b6200108a565b505050831562000ce25760008560000160086101000a81548160ff0219169083151502179055507fc7f505b2f371ae2175ee4913f4499e1f2633a7b5936321eed1cdaeb6115181d2600160405162000cd9919062001635565b60405180910390a15b5050505050505050505050565b6000600260008373ffffffffffffffffffffffffffffffffffffffff1673ffffffffffffffffffffffffffffffffffffffff16815260200190815260200160002060009054906101000a900473ffffffffffffffffffffffffffffffffffffffff1673ffffffffffffffffffffffffffffffffffffffff1663be9a65556040518163ffffffff1660e01b8152600401602060405180830381865afa15801562000d9c573d6000803e3d6000fd5b505050506040513d601f19601f8201168201806040525081019062000dc2919062001509565b9050919050565b62000dd362000e56565b600073ffffffffffffffffffffffffffffffffffffffff168173ffffffffffffffffffffffffffffffffffffffff160362000e485760006040517f1e4fbdf700000000000000000000000000000000000000000000000000000000815260040162000e3f9190620013e1565b60405180910390fd5b62000e538162000ee6565b50565b62000e606200125a565b73ffffffffffffffffffffffffffffffffffffffff1662000e806200069f565b73ffffffffffffffffffffffffffffffffffffffff161462000ee45762000ea66200125a565b6040517f118cdaa700000000000000000000000000000000000000000000000000000000815260040162000edb9190620013e1565b60405180910390fd5b565b60008060009054906101000a900473ffffffffffffffffffffffffffffffffffffffff169050816000806101000a81548173ffffffffffffffffffffffffffffffffffffffff021916908373ffffffffffffffffffffffffffffffffffffffff1602179055508173ffffffffffffffffffffffffffffffffffffffff168173ffffffffffffffffffffffffffffffffffffffff167f8be0079c531659141344cd1fd0a4f28419497f9722a3daafe3b4186f6b6457e060405160405180910390a35050565b60007ff0c57e16840df040f15088dc2f81fe391c3923bec73e23a9662efc9c229c6a00905090565b6000606482600160009054906101000a900473ffffffffffffffffffffffffffffffffffffffff1673ffffffffffffffffffffffffffffffffffffffff166318160ddd6040518163ffffffff1660e01b8152600401602060405180830381865afa15801562001045573d6000803e3d6000fd5b505050506040513d601f19601f820116820180604052508101906200106b919062001509565b62001077919062001652565b620010839190620016cc565b9050919050565b838383836040516200109c9062001262565b620010ab949392919062001704565b604051809103906000f080158015620010c8573d6000803e3d6000fd5b50600260008673ffffffffffffffffffffffffffffffffffffffff1673ffffffffffffffffffffffffffffffffffffffff16815260200190815260200160002060006101000a81548173ffffffffffffffffffffffffffffffffffffffff021916908373ffffffffffffffffffffffffffffffffffffffff160217905550600160009054906101000a900473ffffffffffffffffffffffffffffffffffffffff1673ffffffffffffffffffffffffffffffffffffffff16638f1952bb600260008773ffffffffffffffffffffffffffffffffffffffff1673ffffffffffffffffffffffffffffffffffffffff16815260200190815260200160002060009054906101000a900473ffffffffffffffffffffffffffffffffffffffff16836040518363ffffffff1660e01b81526004016200120492919062001751565b6020604051808303816000875af115801562001224573d6000803e3d6000fd5b505050506040513d601f19601f820116820180604052508101906200124a9190620017bb565b6200125457600080fd5b50505050565b600033905090565b61154880620017ee83390190565b600080fd5b600073ffffffffffffffffffffffffffffffffffffffff82169050919050565b6000620012a28262001275565b9050919050565b620012b48162001295565b8114620012c057600080fd5b50565b600081359050620012d481620012a9565b92915050565b600060208284031215620012f357620012f262001270565b5b60006200130384828501620012c3565b91505092915050565b600067ffffffffffffffff82169050919050565b6200132b816200130c565b81146200133757600080fd5b50565b6000813590506200134b8162001320565b92915050565b600080604083850312156200136b576200136a62001270565b5b60006200137b85828601620012c3565b92505060206200138e858286016200133a565b9150509250929050565b6000819050919050565b620013ad8162001398565b82525050565b6000602082019050620013ca6000830184620013a2565b92915050565b620013db8162001295565b82525050565b6000602082019050620013f86000830184620013d0565b92915050565b60008060008060008060c087890312156200141e576200141d62001270565b5b60006200142e89828a01620012c3565b96505060206200144189828a01620012c3565b95505060406200145489828a01620012c3565b94505060606200146789828a01620012c3565b93505060806200147a89828a01620012c3565b92505060a06200148d89828a01620012c3565b9150509295509295509295565b620014a5816200130c565b82525050565b6000604082019050620014c26000830185620013d0565b620014d160208301846200149a565b9392505050565b620014e38162001398565b8114620014ef57600080fd5b50565b6000815190506200150381620014d8565b92915050565b60006020828403121562001522576200152162001270565b5b60006200153284828501620014f2565b91505092915050565b7f4e487b7100000000000000000000000000000000000000000000000000000000600052601160045260246000fd5b6000620015778262001398565b9150620015848362001398565b92508282019050808211156200159f576200159e6200153b565b5b92915050565b6000620015b2826200130c565b9150620015bf836200130c565b9250828203905067ffffffffffffffff811115620015e257620015e16200153b565b5b92915050565b6000819050919050565b6000819050919050565b60006200161d620016176200161184620015e8565b620015f2565b6200130c565b9050919050565b6200162f81620015fc565b82525050565b60006020820190506200164c600083018462001624565b92915050565b60006200165f8262001398565b91506200166c8362001398565b92508282026200167c8162001398565b915082820484148315176200169657620016956200153b565b5b5092915050565b7f4e487b7100000000000000000000000000000000000000000000000000000000600052601260045260246000fd5b6000620016d98262001398565b9150620016e68362001398565b925082620016f957620016f86200169d565b5b828204905092915050565b60006080820190506200171b6000830187620013d0565b6200172a60208301866200149a565b6200173960408301856200149a565b620017486060830184620013a2565b95945050505050565b6000604082019050620017686000830185620013d0565b620017776020830184620013a2565b9392505050565b60008115159050919050565b62001795816200177e565b8114620017a157600080fd5b50565b600081519050620017b5816200178a565b92915050565b600060208284031215620017d457620017d362001270565b5b6000620017e484828501620017a4565b9150509291505056fe60c06040523480156200001157600080fd5b5060405162001548380380620015488339818101604052810190620000379190620002bc565b83838382600073ffffffffffffffffffffffffffffffffffffffff168173ffffffffffffffffffffffffffffffffffffffff1603620000b05760006040517f1e4fbdf7000000000000000000000000000000000000000000000000000000008152600401620000a791906200033f565b60405180910390fd5b620000c1816200010e60201b60201c565b508167ffffffffffffffff1660808167ffffffffffffffff16815250508067ffffffffffffffff1660a08167ffffffffffffffff168152505050505080600381905550505050506200035c565b60008060009054906101000a900473ffffffffffffffffffffffffffffffffffffffff169050816000806101000a81548173ffffffffffffffffffffffffffffffffffffffff021916908373ffffffffffffffffffffffffffffffffffffffff1602179055508173ffffffffffffffffffffffffffffffffffffffff168173ffffffffffffffffffffffffffffffffffffffff167f8be0079c531659141344cd1fd0a4f28419497f9722a3daafe3b4186f6b6457e060405160405180910390a35050565b600080fd5b600073ffffffffffffffffffffffffffffffffffffffff82169050919050565b60006200020482620001d7565b9050919050565b6200021681620001f7565b81146200022257600080fd5b50565b60008151905062000236816200020b565b92915050565b600067ffffffffffffffff82169050919050565b6200025b816200023c565b81146200026757600080fd5b50565b6000815190506200027b8162000250565b92915050565b6000819050919050565b620002968162000281565b8114620002a257600080fd5b50565b600081519050620002b6816200028b565b92915050565b60008060008060808587031215620002d957620002d8620001d2565b5b6000620002e98782880162000225565b9450506020620002fc878288016200026a565b93505060406200030f878288016200026a565b92505060606200032287828801620002a5565b91505092959194509250565b6200033981620001f7565b82525050565b60006020820190506200035660008301846200032e565b92915050565b60805160a0516111c66200038260003960006103c20152600061068701526111c66000f3fe6080604052600436106100ec5760003560e01c8063961325211161008a578063be9a655511610059578063be9a6555146102ef578063efbe1c1c1461031a578063f2fde38b14610345578063fbccedae1461036e576100f3565b8063961325211461021f5780639852595c1461024a578063a3f8eace14610287578063aa8c217c146102c4576100f3565b8063715018a6116100c6578063715018a614610189578063810ec23b146101a057806386d1a69f146101dd5780638da5cb5b146101f4576100f3565b80630a17b06b146100f85780630fb5a6b4146101355780631916558714610160576100f3565b366100f357005b600080fd5b34801561010457600080fd5b5061011f600480360381019061011a9190610d57565b610399565b60405161012c9190610d9d565b60405180910390f35b34801561014157600080fd5b5061014a6103be565b6040516101579190610d9d565b60405180910390f35b34801561016c57600080fd5b5061018760048036038101906101829190610e16565b6103f0565b005b34801561019557600080fd5b5061019e6104b7565b005b3480156101ac57600080fd5b506101c760048036038101906101c29190610e43565b6104cb565b6040516101d49190610d9d565b60405180910390f35b3480156101e957600080fd5b506101f261056b565b005b34801561020057600080fd5b506102096105db565b6040516102169190610e92565b60405180910390f35b34801561022b57600080fd5b50610234610604565b6040516102419190610d9d565b60405180910390f35b34801561025657600080fd5b50610271600480360381019061026c9190610e16565b61060e565b60405161027e9190610d9d565b60405180910390f35b34801561029357600080fd5b506102ae60048036038101906102a99190610e16565b610657565b6040516102bb9190610d9d565b60405180910390f35b3480156102d057600080fd5b506102d961067d565b6040516102e69190610d9d565b60405180910390f35b3480156102fb57600080fd5b50610304610683565b6040516103119190610d9d565b60405180910390f35b34801561032657600080fd5b5061032f6106b5565b60405161033c9190610d9d565b60405180910390f35b34801561035157600080fd5b5061036c60048036038101906103679190610e16565b6106d6565b005b34801561037a57600080fd5b5061038361075c565b6040516103909190610d9d565b60405180910390f35b60006103b76103a6610604565b476103b19190610edc565b8361077e565b9050919050565b60007f000000000000000000000000000000000000000000000000000000000000000067ffffffffffffffff16905090565b60006103fb82610657565b905080600260008473ffffffffffffffffffffffffffffffffffffffff1673ffffffffffffffffffffffffffffffffffffffff168152602001908152602001600020600082825461044c9190610edc565b925050819055508173ffffffffffffffffffffffffffffffffffffffff167fc0e523490dd523c33b1878c9eb14ff46991e3f5b2cd33710918618f2a39cba1b826040516104999190610d9d565b60405180910390a26104b3826104ad6105db565b83610805565b5050565b6104bf610884565b6104c9600061090b565b565b60006105636104d98461060e565b8473ffffffffffffffffffffffffffffffffffffffff166370a08231306040518263ffffffff1660e01b81526004016105129190610e92565b602060405180830381865afa15801561052f573d6000803e3d6000fd5b505050506040513d601f19601f820116820180604052508101906105539190610f3c565b61055d9190610edc565b8361077e565b905092915050565b600061057561075c565b905080600160008282546105899190610edc565b925050819055507fda9d4e5f101b8b9b1c5b76d0c5a9f7923571acfc02376aa076b75a8c080c956b816040516105bf9190610d9d565b60405180910390a16105d86105d26105db565b826109cf565b50565b60008060009054906101000a900473ffffffffffffffffffffffffffffffffffffffff16905090565b6000600154905090565b6000600260008373ffffffffffffffffffffffffffffffffffffffff1673ffffffffffffffffffffffffffffffffffffffff168152602001908152602001600020549050919050565b60006106628261060e565b61066c83426104cb565b6106769190610f69565b9050919050565b60035481565b60007f000000000000000000000000000000000000000000000000000000000000000067ffffffffffffffff16905090565b60006106bf6103be565b6106c7610683565b6106d19190610edc565b905090565b6106de610884565b600073ffffffffffffffffffffffffffffffffffffffff168173ffffffffffffffffffffffffffffffffffffffff16036107505760006040517f1e4fbdf70000000000000000000000000000000000000000000000000000000081526004016107479190610e92565b60405180910390fd5b6107598161090b565b50565b6000610766610604565b61076f42610399565b6107799190610f69565b905090565b6000610788610683565b8267ffffffffffffffff1610156107a257600090506107ff565b6107aa6106b5565b8267ffffffffffffffff16106107c2578290506107ff565b6107ca6103be565b6107d2610683565b8367ffffffffffffffff166107e79190610f69565b846107f29190610f9d565b6107fc919061100e565b90505b92915050565b61087f838473ffffffffffffffffffffffffffffffffffffffff1663a9059cbb858560405160240161083892919061103f565b604051602081830303815290604052915060e01b6020820180517bffffffffffffffffffffffffffffffffffffffffffffffffffffffff8381831617835250505050610abc565b505050565b61088c610b53565b73ffffffffffffffffffffffffffffffffffffffff166108aa6105db565b73ffffffffffffffffffffffffffffffffffffffff1614610909576108cd610b53565b6040517f118cdaa70000000000000000000000000000000000000000000000000000000081526004016109009190610e92565b60405180910390fd5b565b60008060009054906101000a900473ffffffffffffffffffffffffffffffffffffffff169050816000806101000a81548173ffffffffffffffffffffffffffffffffffffffff021916908373ffffffffffffffffffffffffffffffffffffffff1602179055508173ffffffffffffffffffffffffffffffffffffffff168173ffffffffffffffffffffffffffffffffffffffff167f8be0079c531659141344cd1fd0a4f28419497f9722a3daafe3b4186f6b6457e060405160405180910390a35050565b80471015610a1457306040517fcd786059000000000000000000000000000000000000000000000000000000008152600401610a0b9190610e92565b60405180910390fd5b60008273ffffffffffffffffffffffffffffffffffffffff1682604051610a3a90611099565b60006040518083038185875af1925050503d8060008114610a77576040519150601f19603f3d011682016040523d82523d6000602084013e610a7c565b606091505b5050905080610ab7576040517f1425ea4200000000000000000000000000000000000000000000000000000000815260040160405180910390fd5b505050565b6000610ae7828473ffffffffffffffffffffffffffffffffffffffff16610b5b90919063ffffffff16565b90506000815114158015610b0c575080806020019051810190610b0a91906110e6565b155b15610b4e57826040517f5274afe7000000000000000000000000000000000000000000000000000000008152600401610b459190610e92565b60405180910390fd5b505050565b600033905090565b6060610b6983836000610b71565b905092915050565b606081471015610bb857306040517fcd786059000000000000000000000000000000000000000000000000000000008152600401610baf9190610e92565b60405180910390fd5b6000808573ffffffffffffffffffffffffffffffffffffffff168486604051610be19190611179565b60006040518083038185875af1925050503d8060008114610c1e576040519150601f19603f3d011682016040523d82523d6000602084013e610c23565b606091505b5091509150610c33868383610c3e565b925050509392505050565b606082610c5357610c4e82610ccd565b610cc5565b60008251148015610c7b575060008473ffffffffffffffffffffffffffffffffffffffff163b145b15610cbd57836040517f9996b315000000000000000000000000000000000000000000000000000000008152600401610cb49190610e92565b60405180910390fd5b819050610cc6565b5b9392505050565b600081511115610ce05780518082602001fd5b6040517f1425ea4200000000000000000000000000000000000000000000000000000000815260040160405180910390fd5b600080fd5b600067ffffffffffffffff82169050919050565b610d3481610d17565b8114610d3f57600080fd5b50565b600081359050610d5181610d2b565b92915050565b600060208284031215610d6d57610d6c610d12565b5b6000610d7b84828501610d42565b91505092915050565b6000819050919050565b610d9781610d84565b82525050565b6000602082019050610db26000830184610d8e565b92915050565b600073ffffffffffffffffffffffffffffffffffffffff82169050919050565b6000610de382610db8565b9050919050565b610df381610dd8565b8114610dfe57600080fd5b50565b600081359050610e1081610dea565b92915050565b600060208284031215610e2c57610e2b610d12565b5b6000610e3a84828501610e01565b91505092915050565b60008060408385031215610e5a57610e59610d12565b5b6000610e6885828601610e01565b9250506020610e7985828601610d42565b9150509250929050565b610e8c81610dd8565b82525050565b6000602082019050610ea76000830184610e83565b92915050565b7f4e487b7100000000000000000000000000000000000000000000000000000000600052601160045260246000fd5b6000610ee782610d84565b9150610ef283610d84565b9250828201905080821115610f0a57610f09610ead565b5b92915050565b610f1981610d84565b8114610f2457600080fd5b50565b600081519050610f3681610f10565b92915050565b600060208284031215610f5257610f51610d12565b5b6000610f6084828501610f27565b91505092915050565b6000610f7482610d84565b9150610f7f83610d84565b9250828203905081811115610f9757610f96610ead565b5b92915050565b6000610fa882610d84565b9150610fb383610d84565b9250828202610fc181610d84565b91508282048414831517610fd857610fd7610ead565b5b5092915050565b7f4e487b7100000000000000000000000000000000000000000000000000000000600052601260045260246000fd5b600061101982610d84565b915061102483610d84565b92508261103457611033610fdf565b5b828204905092915050565b60006040820190506110546000830185610e83565b6110616020830184610d8e565b9392505050565b600081905092915050565b50565b6000611083600083611068565b915061108e82611073565b600082019050919050565b60006110a482611076565b9150819050919050565b60008115159050919050565b6110c3816110ae565b81146110ce57600080fd5b50565b6000815190506110e0816110ba565b92915050565b6000602082840312156110fc576110fb610d12565b5b600061110a848285016110d1565b91505092915050565b600081519050919050565b60005b8381101561113c578082015181840152602081019050611121565b60008484015250505050565b600061115382611113565b61115d8185611068565b935061116d81856020860161111e565b80840191505092915050565b60006111858284611148565b91508190509291505056fea2646970667358221220c64012ab7199f10e8a3185052e77993031a8438f390f6978637f81e25f44695d64736f6c63430008180033a26469706673582212200ccbc706cdbf87a0d4fec564c3f79c2f3c06fb40a28adce31b8cb8ca7e54055d64736f6c63430008180033",
  "linkReferences": {},
  "deployedLinkReferences": {}
}